S01600004D6173746572436F6D706C6574652E7372656369
S11300000C942B000C9453000C948E000C9453000D
S11300100C9453000C9453000C9453000C94530010
S11300200C9453000C9453000C9453000C94E80269
S11300300C9453000C9453000C9453000C945300F0
S11300400C9453000C9453000C9453000C945300E0
S11300500C945300470411241FBECFE5D8E0DEBF43
S1130060CDBF11E0A0E6B0E0EEE7F8E102C00590F4
S11300700D92AA30B107D9F722E0AAE0B1E001C09D
S11300801D92AD30B207E1F710E0C6E5D0E004C040
S11300902297FE010E94080CC435D107C9F70E94BB
S11300A097030C943D0C0C940000CF93DF938CE3E6
S11300B00E94C50083E00E94E6000E94BF008DE319
S11300C00E94E3000E94FA00CAE0D1E0188289830A
S11300D00E94FA0028813981282B398328830E94C1
S11300E0FA00CEE0D1E0188289830E94FA002881C8
S11300F03981282B398328830E94FA00CCE0D1E08F
S1130100188289830E94F30028813981282B39833E
S113011028830E94BF00DF91CF9108951F920F9210
S11301200FB60F9211242F933F934F935F936F93C6
S11301307F938F939F93AF93BF93EF93FF9380919C
S11301401001813049F480911101909112010196BE
S113015090931201809311010E945500FF91EF9139
S1130160BF91AF919F918F917F916F915F914F91CB
S11301703F912F910F900FBE0F901F90189584E917
S113018086BF06B604FCFDCF089594EA96BF06B672
S113019007FEFDCF91B1987F983011F0903179F43A
S11301A083B984E886BF06B607FEFDCF91B1987F78
S11301B0983139F081E0903429F480E0089581E0A9
S11301C0089580E008950E94C500089583B984E8E5
S11301D086BF06B607FEFDCF91B1987F81E09832C5
S11301E009F480E0089584E886BF06B607FEFDCFD3
S11301F083B1089584EC86BF06B607FEFDCF83B1B4
S1130200089595ED9A95F1F70000882314F4DF9A88
S113021001C0DF9886FF02C0DE9A01C0DE9885FF28
S113022002C0DD9A01C0DD9884FF02C0DC9A01C0DF
S1130230DC98DA9ADA9883FF02C0DF9A01C0DF986B
S113024082FF02C0DE9A01C0DE9881FF02C0DD9AFF
S113025001C0DD9880FF02C0DC9A01C0DC98DA9A04
S1130260DA980895DB9881E00E9401018FE39FE111
S11302700197F1F700C000000895CF93DF93EC01DC
S1130280DB9A8881882331F021960E9401018991AB
S11302908111FBCFDF91CF910895DB9A0E94010178
S11302A00895DB9880680E9401010895D39AD29A38
S11302B0D79AD69AD59AD49ADB98DA988FE59AEE9B
S11302C00197F1F700C00000DC9ADD9ADE98DF9810
S11302D0DA9ADA988FE19EE40197F1F700C0000002
S11302E0DA9ADA988FE193E00197F1F700C0000001
S11302F0DA9ADA988FE193E00197F1F700C00000F1
S1130300DC98DD9ADE98DF98DA9ADA9888E20E941F
S113031001018CE00E9401010E94320186E00E94EA
S113032001010895CF93DF9300D000D000D0CDB762
S1130330DEB7AB01BE016F5F7F4F0E940C0CCE0194
S113034001960E943D0126960FB6F894DEBF0FBEBB
S1130350CDBFDF91CF91089590E4699F800D112462
S11303600E94510108954F925F926F927F92AF92D3
S1130370BF92CF92DF92EF92FF920F931F93CF938E
S1130380DF93CDB7DEB7FE017196A191B1916F01F4
S11303908C91882309F4BDC07D01853209F09FC08A
S11303A087010F5F1F4FF7018181863609F44DC025
S11303B030F4823661F0843609F08EC022C083376F
S11303C069F1883789F08F3609F086C078C07601E4
S11303D0F2E0EF0EF11C62E070E0F60180819181A1
S11303E00E94920167018DC07601F2E0EF0EF11CCC
S11303F060E170E0F601808191810E9492016701C1
S113040080C07601F2E0EF0EF11C6AE070E0F601C4
S1130410808191810E949201670173C0F60182E09C
S1130420C80ED11C0190F081E02D8081882309F44D
S113043068C07F019FEFE91AF90A0E944D01F70194
S113044081917F018111F9CF5CC05601F4E0AF0EB8
S1130450B11CF6014080518062807380C301B201F7
S11304600E94940A6B017C01882777FD8095982F60
S11304700E94C70A9B01AC01C301B2010E94C309D7
S113048020E030E44CE156E40E947B0B0E94940A85
S1130490662E772E6AE070E0C6010E9492018EE219
S11304A00E944D01862D972D99231CF491958195D9
S11304B091096AE070E00E949201650122C0760110
S11304C0F2E0EF0EF11C68E070E0F60180819181AA
S11304D00E949201670115C00E944D0112C089302B
S11304E029F480E20E944D0187010BC08A3031F467
S11304F061E080E00E94AC01870103C00E944D01CD
S113050087017801FFEFEF1AFF0AF8018181811159
S113051044CFDF91CF911F910F91FF90EF90DF9027
S1130520CF90BF90AF907F906F905F904F90089561
S1130530B89AB99ABA9ABB9ABD9ABF9ABC9ABE980D
S1130540BE98C69A8DB185658DB9089599232CF40A
S113055091958195910931E001C030E0292F220F56
S113056088230CF421608068313021F42F77922F96
S1130570906402C0922F9F738FB9779BFECF2FB1E7
S1130580EFE9FFE03197F1F700C000009FB9779BD6
S1130590FECF8FB180FF2F7786FF0FC08F7B90E057
S11305A096958795982F8827822B91958195910907
S11305B09093FD018093FC01089590E096958795B2
S11305C0982F8827822B9093FD018093FC01089536
S11305D078941F920F920FB60F9211242F933F938A
S11305E04F935F936F937F938F939F93AF93BF9337
S11305F0CF93DF93EF93FF9380910602982F9F5F31
S1130600833019F09093060258C010920602C098E5
S11306106091DF017091E0018091E1019091E2012C
S11306200E94940ACB010E94A602C09ACCEFD1E0AA
S1130630888199819093FF018093FE01C198609114
S1130640E3017091E4018091E5019091E6010E943B
S1130650940ACB010E94A602C19A88819981909341
S1130660010280930002C2986091E7017091E80151
S11306708091E9019091EA010E94940ACB010E94C1
S1130680A602C29A88819981909303028093020200
S1130690C3986091EB017091EC018091ED01909110
S11306A0EE010E94940ACB010E94A602C39A88819B
S11306B0998190930502809304028091FB018F5FDE
S11306C08093FB016EEF71E083E191E00E944708A3
S11306D0FF91EF91DF91CF91BF91AF919F918F9156
S11306E07F916F915F914F913F912F910F900FBE2A
S11306F00F901F90189589B7816089BF83B7856073
S113070083BF08958898899A8AB188618AB980B527
S1130710866880BD10BC89E189B908958EB584606E
S11307208EBD08958E9A96988F9A979A08956FE73A
S113073070E083E191E00E9477091092FD0110922C
S1130740FC010E9456010E9482030E948E030E94B3
S1130750920380EF90E09F938F930E94B3010E94D5
S113076098020E947B03789480E090E0AEEFB2E4BC
S11307708093DF019093E001A093E101B093E20143
S11307808093E3019093E401A093E501B093E60123
S11307908093E7019093E801A093E901B093EA0103
S11307A08093EB019093EC01A093ED01B093EE01E3
S11307B00F900F90AA24A394B12C0F2EFEEFCF2EEE
S11307C0F1E0DF2EF02D0F2EF6EFEF2EF0E0FF2EEE
S11307D0F02DC3EFD1E003E011E008B602FE03C040
S11307E088B7846088BF5F9B29C0BDBCACBC0E9435
S11307F032018CB18A3C71F497982FEF89E698E125
S1130800215080409040E1F700C00000979A0E9478
S1130810320114C08CB18B3C61F4969AEFEFF6E18F
S113082021E1E150F0402040E1F700C0000096983B
S113083005C06CB183E191E00E9407078091FB0140
S11308408A3058F20E9432018CB1F60191819F9353
S113085090819F931F928F93FF92EF920E94B30116
S11308608B818F938A818F9389818F9388818F93D2
S11308701F930F930E94B3011092FB018DB79EB793
S11308800C960FB6F8949EBF0FBE8DBFA6CF60E046
S113089083E191E00E94C8050895FC0188EE93E08D
S11308A091AB80AB81E090E093AB82AB148615866C
S11308B016861786108A118A128A138A148A158A50
S11308C0168A178A108E118E128E138E148E158E20
S11308D0168E178E10A211A212A213A210A611A690
S11308E012A613A614A615A616A617A681E084AF11
S11308F086E990E097AF86AF0895641775072CF4E6
S1130900FC0175AB64AB57AB46AB0895FC0165AF16
S11309104217530724F451AF40AF33AF22AF0895C9
S1130920CF92DF92EF92FF920F931F93CF93DF93B7
S1130930EC018B0161157105C1F16AA97BA98827B6
S113094077FD8095982F0E94C70A6B017C01B8013E
S113095080E090E00E94C50A9B01AC01C701B6018A
S11309600E942C0AC62ED72EE82EF92E762F272F7A
S11309703D2D4E2D5F2D6C817D818E819F810E9446
S11309807B0B6C837D838E839F832C2D3D2D4E2D7D
S11309905F2D688579858A859B850E942C0A6887E6
S11309A079878A879B871BAB0AABDF91CF911F9115
S11309B00F91FF90EF90DF90CF9008951F93CF9306
S11309C0DF93EC01122F4CA35DA36EA37FA38CAD28
S11309D0821739F1288139814A815B8160E070E0B6
S11309E0CB010E94C309688379838A839B832C810A
S11309F03D814E815F8160E070E0CB010E94C309BC
S1130A006C837D838E839F83288539854A855B85A6
S1130A1060E070E0CB010E94C309688779878A8708
S1130A209B871CAFDF91CF911F9108952F923F9226
S1130A304F925F926F927F928F929F92AF92BF92EA
S1130A40CF92DF92EF92FF920F931F93CF93DF9396
S1130A50EC014A015B012801390120E030E0A901E1
S1130A60C501B4010E94280A88230CF47EC020E04A
S1130A7030E0A901C301B2010E94280A88230CF4C2
S1130A8074C020E030E0A901C701B6010E94280A21
S1130A9088230CF46AC06AA97BA9882777FD80950E
S1130AA0982F0E94C70A9B01AC0160E070E080E8C7
S1130AB09FE30E942C0A262E372E082F192F888296
S1130AC09982AA82BB82762F272F332D402F512F54
S1130AD0C301B2010E947B0B462E572E682E792E3D
S1130AE0862F952DA62DB72D8C839D83AE83BF8332
S1130AF0222D332D402F512FC701B6010E942C0AFD
S1130B00E62EF72E082F192F982F4E2D5F2D692FC3
S1130B10712F488759876A877B878CAD811125C0DF
S1130B20A501940160E070E0CB010E94C3096883D1
S1130B3079838A839B83242D352D462D572D60E0A0
S1130B4070E0CB010E94C3096C837D838E839F83F5
S1130B502E2D3F2D402F512F60E070E0CB010E94DD
S1130B60C309688779878A879B87DF91CF911F9113
S1130B700F91FF90EF90DF90CF90BF90AF909F9038
S1130B808F907F906F905F904F903F902F9008953B
S1130B90CF93DF93CDB7DEB7C059D1090FB6F89420
S1130BA0DEBF0FBECDBF20E3E0ECF0E0DE01AF59C5
S1130BB0BF4F01900D922A95E1F720E3E0E9F0E0C0
S1130BC0DE01D19601900D922A95E1F720E3E0E64B
S1130BD0F0E0DE01119601900D922A95E1F7FC01F7
S1130BE0E453FF4F1082118212821382FC01E053FE
S1130BF0FF4F1082118212821382FC01EC52FF4FCC
S1130C001082118212821382FC01E852FF4F10827B
S1130C10118212821382FC01E45AFF4F1082118266
S1130C2012821382FC01E05AFF4F10821182128259
S1130C301382FC01EC59FF4F10821182128213823D
S1130C4061110AC0FE01EF59FF4FDC01A859BF4FE3
S1130C509F01205D3F4F2BC0FE01F196DC01A85996
S1130C60BF4F9F01205D3F4F40815181628173815D
S1130C704D935D936D937C93139744815581668165
S1130C80778114964D935D936D937C93179740856C
S1130C9051856285738518964D935D936D937C930E
S1130CA01B973C961C96E217F307F1F622C040818D
S1130CB05181628173814D935D936D937C931397FE
S1130CC0448155816681778114964D935D936D932C
S1130CD07C931797408551856285738518964D934B
S1130CE05D936D937C931B973C961C96E217F307D8
S1130CF0F1F6FC01E856FF4F49815A816B817C81F2
S1130D004083518362837383FC01E456FF4F4D811A
S1130D105E816F8178854083518362837383FC0194
S1130D20E056FF4F49855A856B857C854083518306
S1130D3062837383FC01EC55FF4F4D855E856F859F
S1130D4078894083518362837383FC01E855FF4FA4
S1130D5049895A896B897C8940835183628373836F
S1130D60FC01E455FF4F4D895E896F89788D40837E
S1130D70518362837383FC01E055FF4F498D5A8D83
S1130D806B8D7C8D4083518362837383FC01EC54AF
S1130D90FF4F4D8D5E8D6F8D78A1408351836283AB
S1130DA07383FC01E854FF4F49A15AA16BA17CA1B4
S1130DB04083518362837383FC01E454FF4F4DA14C
S1130DC05EA16FA178A54083518362837383FC0184
S1130DD0E054FF4F49A55AA56BA57CA540835183D8
S1130DE062837383FC01EC53FF4F4DA55EA56FA591
S1130DF078A94083518362837383C057DF4F0FB652
S1130E00F894DEBF0FBECDBFDF91CF9108952F922E
S1130E103F924F925F926F927F928F929F92AF9286
S1130E20BF92CF92DF92EF92FF920F931F93CF93D3
S1130E30DF931C01643640F4862F90E0C2979093B0
S1130E4008028093070219C0862F8556833648F41A
S1130E50862F90E08659910990930A0280930902A3
S1130E600CC0862F8C5D853140F486EE90E0861BA5
S1130E70910990930C0280930B02E101C45ADF4F55
S1130E806091070270910802882777FD8095982F5A
S1130E900E94C70A688379838A839B83E101C05ACD
S1130EA0DF4F6091090270910A02882777FD8095CF
S1130EB0982F0E94C70A688379838A839B83E10100
S1130EC0CC59DF4F60910B0270910C02882777FD9B
S1130ED08095982F0E94C70A20E030E040EA5FE343
S1130EE00E947B0B688379838A839B83E101C453CB
S1130EF0DF4F188219821A821B82F101E053FF4FDF
S1130F001082118212821382F101EC52FF4F10827F
S1130F10118212821382F101E852FF4F1082118272
S1130F2012821382810108591F4F41018CED880EF2
S1130F30911C5101ECE5AE0EB11C6101F0E6CF0E3F
S1130F40D11C84E6280E311C25C0188219821A820D
S1130F501B8219C020E030E04FE753E4C301B20123
S1130F600E94770B181634F0F70140825182628296
S1130F70738209C080E090E0AFE7B3E4F7018083B7
S1130F809183A283B3832496045F1F4FC815D905A8
S1130F9009F46AC07E01F5012081318142815381C7
S1130FA0F80160817181828193810E947B0B288189
S1130FB039814A815B810E94C409462E572E682ECE
S1130FC0792EF6012081318142815381F8016481B7
S1130FD07581868197810E947B0B9B01AC01642DF6
S1130FE0752D862D972D0E94C409462E572E682EE6
S1130FF0792EF1012081318142815381F80160858C
S11310007185828593850E947B0B242D352D462D79
S1131010572D0E94C409688379838A839B8326E6BB
S113102036E64DE052E40E94C40926E636E64DE871
S113103052E40E942C0A20E030E04FE753E40E947F
S11310407B0B0E94940A882777FD8095982F0E9435
S1131050C70A2B013C0120E030E0A9010E94280AC4
S113106088230CF077CF71CFDF91CF911F910F912F
S1131070FF90EF90DF90CF90BF90AF909F908F90B4
S11310807F906F905F904F903F902F9008952F9294
S11310903F924F925F926F927F928F929F92AF9204
S11310A0BF92CF92DF92EF92FF920F931F93CF9351
S11310B0DF9300D000D0CDB7DEB75C01E62EF72E6B
S11310C08C01005C1F4F68016894882482F8912C7D
S11310D0D7016D917D917D01882777FD8095982FAB
S11310E00E94C70A23E333E343E359E30E947B0BE3
S11310F0F60161937193819391936F01F1E08F1ADB
S1131100910831F7F501E05BFF4F108211821282E2
S11311101382D501AC5ABF4F1D921D921D921C9291
S11311201397D501A85ABF4F1D921D921D921C9270
S113113013976F01812C912C09831A8334C0D70132
S11311406D917D918D919D917D01F8012191319158
S1131150419151918F010E947B0B9B01AC01622D47
S1131160732D842D952D0E94C409262E372E482ECA
S1131170592E8B819C8101979C838B83892BF9F653
S1131180822D932DA42DB52DF30180839183A28309
S1131190B383F4E0CF0ED11C2FEF821A920A83E0BE
S11311A08816910401F13601D6012C9011963C90D9
S11311B0119712964C90129713965C907401EE0C52
S11311C0FF1CEE0CFF1CEE0CFF1CEE0CFF1CB8E920
S11311D0EB0EF11CEA0CFB1C09811A81E4E0F0E03F
S11311E0FC83EB83ACCF850104521F4FF501E05B18
S11311F0FF4F2081318142815381D8016D917D91CE
S11312008D919C910E94C409F8016083718382834B
S11312109383850100521F4FF501EC5AFF4F208143
S1131220318142815381D8016D917D918D919C9141
S11312300E94C409F80160837183828393838501CA
S11312400C511F4FF501E85AFF4F20813181428133
S11312505381D8016D917D918D919C910E94C40917
S1131260E62FF72F462F572F682F792FD8014D934C
S11312705D936D937C931397B8ECAB0EB11C20E097
S113128030E044EB53E46E2F7F2F0E947B0B26E665
S113129036E646E050E40E942C0A0E94940ACB01F0
S11312A068E671E00E94DE0BBC01882777FD80951B
S11312B0982F0E94C70AF501608371838283938308
S11312C00F900F900F900F90DF91CF911F910F917E
S11312D0FF90EF90DF90CF90BF90AF909F908F9052
S11312E07F906F905F904F903F902F900895AF92B2
S11312F0BF92CF92DF92EF92FF920F931F93CF93FF
S1131300DF93A82EB92EEB010E944D0461E070E03A
S11313108A2D9B2D0E949004C12CD12C760197011B
S1131320860140E050E060E87FE38A2D9B2D0E9417
S11313301605BE01882777FD8095982F0E94C70A5D
S1131340AB01BC0121E08A2D9B2D0E94DE044FE7F6
S113135050E061E87FEF8A2D9B2D0E947D0422E3FB
S113136030E04EEC5FEF61E08A2D9B2D0E948604F5
S1131370DF91CF911F910F91FF90EF90DF90CF906D
S1131380BF90AF9008955058BB27AA270ED075C1BF
S113139066D130F06BD120F031F49F3F11F41EF48C
S11313A05BC10EF4E095E7FB51C1E92F77D180F3DF
S11313B0BA17620773078407950718F071F49EF54E
S11313C08FC10EF4E0950B2EBA2FA02D0B01B9019D
S11313D090010C01CA01A0011124FF27591B99F0A7
S11313E0593F50F4503E68F11A16F040A22F232FB3
S11313F0342F4427585FF3CF469537952795A79503
S1131400F0405395C9F77EF41F16BA0B620B730BA9
S1131410840BBAF09150A1F0FF0FBB1F661F771F1A
S1131420881FC2F70EC0BA0F621F731F841F48F4CF
S1131430879577956795B795F7959E3F08F0B3CF55
S11314409395880F08F09927EE0F9795879508953F
S1131450D9D008F481E008950CD00FC107D140F031
S1131460FED030F021F45F3F19F0F0C0511139C1C2
S1131470F3C014D198F39923C9F35523B1F3951B01
S1131480550BBB27AA2762177307840738F09F5FA1
S11314905F4F220F331F441FAA1FA9F333D00E2E10
S11314A03AF0E0E830D091505040E695001CCAF77D
S11314B029D0FE2F27D0660F771F881FBB1F261742
S11314C037074807AB07B0E809F0BB0B802DBF0115
S11314D0FF2793585F4F2AF09E3F510568F0B6C02E
S11314E000C15F3FECF3983EDCF3869577956795F2
S11314F0B795F7959F5FC9F7880F911D96958795C6
S113150097F90895E1E0660F771F881FBB1F6217E4
S113151073078407BA0720F0621B730B840BBA0BA2
S1131520EE1F88F7E095089504D06894B111D9C0EE
S11315300895BCD088F09F5790F0B92F9927B751E0
S1131540A0F0D1F0660F771F881F991F1AF0BA9583
S1131550C9F712C0B13081F0C3D0B1E00895C0C062
S1131560672F782F8827B85F39F0B93FCCF3869579
S113157077956795B395D9F73EF4909580957095D6
S113158061957F4F8F4F9F4F0895E89409C097FB53
S11315903EF490958095709561957F4F8F4F9F4F46
S11315A09923A9F0F92F96E9BB279395F69587958A
S11315B077956795B795F111F8CFFAF4BB0F11F44D
S11315C060FF1BC06F5F7F4F8F4F9F4F16C08823F4
S11315D011F096E911C0772321F09EE8872F762F2A
S11315E005C0662371F096E8862F70E060E02AF06B
S11315F09A95660F771F881FDAF7880F9695879557
S113160097F90895990F0008550FAA0BE0E8FEEF2B
S113161016161706E807F907C0F012161306E407B2
S1131620F50798F0621B730B840B950B39F40A26AB
S113163061F0232B242B252B21F408950A2609F489
S1131640A140A6958FEF811D811D089597F99F678D
S113165080E870E060E008959FEF80EC0895002436
S11316600A941616170618060906089500240A9403
S113167012161306140605060895092E0394000C89
S113168011F4882352F0BB0F40F4BF2B11F460FF18
S113169004C06F5F7F4F8F4F9F4F089557FD905841
S11316A0440F551F59F05F3F71F04795880F97FB22
S11316B0991F61F09F3F79F08795089512161306DC
S11316C01406551FF2CF4695F1DF08C0161617060B
S11316D01806991FF1CF8695710561050894089540
S11316E0E894BB2766277727CB0197F908958ADF0B
S11316F008F48FEF08950BD0C0CFB1DF28F0B6DF28
S113170018F0952309F0A2CFA7CF1124EACFC6DFA2
S1131710A0F3959FD1F3950F50E0551F629FF00100
S1131720729FBB27F00DB11D639FAA27F00DB11D59
S1131730AA1F649F6627B00DA11D661F829F2227E2
S1131740B00DA11D621F739FB00DA11D621F839F69
S1131750A00D611D221F749F3327A00D611D231F3F
S1131760849F600D211D822F762F6A2F11249F578D
S113177050408AF0E1F088234AF0EE0FFF1FBB1FB0
S1131780661F771F881F91505040A9F79E3F51054F
S113179070F05CCFA6CF5F3FECF3983EDCF3869508
S11317A077956795B795F795E7959F5FC1F7FE2BFA
S11317B0880F911D9695879597F9089597FB072EA5
S11317C016F4009407D077FD09D00E94F20B07FCB1
S11317D005D03EF4909581959F4F0895709561953D
S11317E07F4F0895AA1BBB1B51E107C0AA1FBB1F53
S11317F0A617B70710F0A61BB70B881F991F5A9599
S1131800A9F780959095BC01CD010895EE0FFF1FB7
S11318100590F491E02D0994FB019F01E894423076
S1131820C4F04532B4F44A3029F497FB1EF4909581
S113183081959F4F642F77270E94F20B805D8A3336
S11318400CF0895D8193CB010097A1F716F45DE25A
S113185051931082C9010C942D0CDC01FC01672FFB
S113186071917723E1F7329704C07C916D93708373
S11118706291AE17BF07C8F30895F894FFCF36
S113187EE604B5BEE604B5BEE604B53EE604B53EE2
S113188EE604B53EE604B5BEE604B5BEE604B53ED2
S113189E0000803E0000803E0000803E0000803E3E
S11318AE000000000000803F0000803F000080BF69
S11318BE000000000000803F00000000000080BF18
S11318CE0000803F0000803F000000000000803FC9
S11318DEF4FD34BFF4FD343F0000803FF4FD34BF0B
S11318EEF4FD34BF0000803FF4FD343FF4FD34BFFB
S11318FE0000803FF4FD343FF4FD343F0000803F90
S113190E68656C6C6F005544523D25642073313DFF
S10D191E2564000A793D25660000E7
S9030000FC
