S01100006D61737465726E74762E737265632F
S11300000C9442000C946A000C941B020C946A0039
S11300100C946A000C946A000C946A000C942904F1
S11300200C946A000C946A000C946A000C946A00A4
S11300300C946A040C946A000C946A000C946A0090
S11300400C946A000C946A000C946A000C946A0084
S11300500C946A00084AD73B3BCE016E84BCBFFDBA
S1130060C12F3D6C74319ABD56833DDA3D00C77F84
S113007011BED9E4BB4C3E916BAAAABE000000801D
S11300803F00E80611241FBECFE5D8E0DEBFCDBF98
S113009011E0A0E6B0E0E2E9F0E202C005900D92C2
S11300A0AE30B107D9F722E0AEE0B1E001C01D9255
S11300B0A534B207E1F710E0C4E8D0E004C0229709
S11300C0FE010E941210C238D107C9F70E948E05A2
S11300D00C9447100C94000085B7886085BF8BB7DB
S11300E080688BBF8AB780688ABF08950F931F9377
S11300F0CF93DF93FC01C62FD42F00E010E020E85B
S11301003FE3008311832283338327E130E0358387
S1130110248310920F0110920E011092110110927B
S11301201001109213011092120116821782108688
S11301301186128A138A148A158A16861786108ADB
S1130140118A12861386148615860E946C000E94FA
S11301504C028CE30E94560280E00E9477028D2FAD
S11301608C2B0E9477020E9450028CE30E9456025C
S113017082E00E94770280E00E9477020E9450028F
S1130180DF91CF911F910F910895CF93DF93EC01ED
S113019060910E0170910F01882777FD8095982F4B
S11301A00E94B60E2A853B854C855D850E94500DC4
S11301B0288139814A815B810E94960F60931401E2
S11301C070931501809316019093170160911001AB
S11301D070911101882777FD8095982F0E94B60EA3
S11301E02E853F85488959890E94500D288139817F
S11301F04A815B810E94960F6093180170931901E4
S113020080931A0190931B01609112017091130164
S1130210882777FD8095982F0E94B60E2A893B89FE
S11302204C895D890E94500D288139814A815B8106
S11302300E94960F60931C0170931D0180931E0110
S113024090931F01DF91CF910895CF93DF93EC0139
S11302500E94C500209114013091150140911601AE
S113026050911701609118017091190180911A0140
S113027090911B010E94C40D20E030E044E353E45C
S11302800E94960F2BED3FE049E450E40E941B0EC0
S113029020E030E044E353E40E94510D262F372F31
S11302A0462F572F682F792F4E835F83688779876E
S11302B0622F732FDF91CF910895CF93633089F12B
S11302C020F46130C1F010F50BC0653009F43FC073
S11302D098F1663009F446C0673009F059C04DC042
S11302E048E451EE6AE37FE3FC0140835183628377
S11302F07383C0E057C04FE155E86BE67FE3FC0130
S11303004083518362837383C1E04CC046EF58E25B
S11303106CE97FE3FC014083518362837383C2E011
S113032041C04CE55FE862EC7FE3FC01408351830C
S113033062837383C3E036C04EEA57E461E170E43C
S1130340FC014083518362837383C4E02BC04AE081
S113035057ED63E270E4FC0140835183628373834D
S1130360C5E020C045E85BEE61E470E4FC01408335
S1130370518362837383C6E015C043E353E36BE8A0
S113038070E4FC014083518362837383C7E00AC035
S113039048E451EE6AE37FE3FC01408351836283C6
S11303A07383C0E08CE30E94560281E00E947702CE
S11303B08C2F8295880F807E0E9477020E945002C3
S11303C0CF910895CF93DF938CE30E94560283E08C
S11303D00E9477020E9450028DE30E9474020E94E0
S11303E08B02CEE0D1E0188289830E948B0228819F
S11303F03981282B398328830E948B02C2E1D1E002
S1130400188289830E948B0228813981282B3983A1
S113041028830E948B02C0E1D1E0188289830E9464
S1130420840228813981282B398328830E94500231
S1130430DF91CF9108951F920F920FB60F9211245E
S11304402F933F934F935F936F937F938F939F93D8
S1130450AF93BF93EF93FF9380912001813049F4D0
S11304608091210190912201019690932201809321
S113047021010E94E201FF91EF91BF91AF919F9101
S11304808F917F916F915F914F913F912F910F9039
S11304900FBE0F901F90189588E480B911B8089585
S11304A084E986BF06B604FCFDCF089594EA96BF9E
S11304B006B607FEFDCF91B1987F983011F09031C8
S11304C079F483B984E886BF06B607FEFDCF91B1FF
S11304D0987F983139F081E0903429F480E00895D0
S11304E081E0089580E008950E945602089583B93A
S11304F084E886BF06B607FEFDCF91B1987F81E000
S1130500983209F480E0089584E886BF06B607FEB1
S1130510FDCF83B1089584EC86BF06B607FEFDCFF8
S113052083B1089595ED9A95F1F70000882314F4AA
S1130530D99A01C0D99886FF02C0DA9A01C0DA9824
S113054085FF02C0DB9A01C0DB9884FF02C0DC9AFD
S113055001C0DC98DD9ADD9883FF02C0D99A01C0FE
S1130560D99882FF02C0DA9A01C0DA9881FF02C0EA
S1130570DB9A01C0DB9880FF02C0DC9A01C0DC98E2
S1130580DD9ADD980895DE9881E00E9492028FE35F
S11305909FE10197F1F700C000000895CF93DF9326
S11305A0EC01DE9A8881882331F021960E94920220
S11305B089918111FBCFDF91CF910895DE9A0E943A
S11305C092020895DE9880680E9492020895D69A55
S11305D0D59AD19AD29AD39AD49ADE98DD988FE597
S11305E09AEE0197F1F700C00000DC9ADB9ADA98E2
S11305F0D998DD9ADD988FE19EE40197F1F700C068
S11306000000DD9ADD988FE193E00197F1F700C0D7
S11306100000DD9ADD988FE193E00197F1F700C0C7
S11306200000DC98DB9ADA98D998DD9ADD9888E2A4
S11306300E9492028CE00E9492020E94C30286E011
S11306400E9492020895CF93DF9300D000D000D08F
S1130650CDB7DEB7AB01BE016F5F7F4F0E941610AE
S1130660CE0101960E94CE0226960FB6F894DEBF04
S11306700FBECDBFDF91CF91089590E4699F800DA7
S113068011240E94E20208954F925F926F927F922A
S1130690AF92BF92CF92DF92EF92FF920F931F938C
S11306A0CF93DF93CDB7DEB7FE017196A191B191DF
S11306B06F018C91882309F4BDC07D01853209F056
S11306C09FC087010F5F1F4FF7018181863609F4B0
S11306D04DC030F4823661F0843609F08EC022C0F9
S11306E0833769F1883789F08F3609F086C078C07E
S11306F07601F2E0EF0EF11C62E070E0F601808119
S113070091810E94230367018DC07601F2E0EF0E10
S1130710F11C60E170E0F601808191810E94230365
S1130720670180C07601F2E0EF0EF11C6AE070E030
S1130730F601808191810E942303670173C0F60151
S113074082E0C80ED11C0190F081E02D80818823C5
S113075009F468C07F019FEFE91AF90A0E94DE02DA
S1130760F70181917F018111F9CF5CC05601F4E05A
S1130770AF0EB11CF6014080518062807380C301CA
S1130780B2010E94830E6B017C01882777FD80955E
S1130790982F0E94B60E9B01AC01C301B2010E94C6
S11307A0500D20E030E44CE156E40E94960F0E9484
S11307B0830E662E772E6AE070E0C6010E94230342
S11307C08EE20E94DE02862D972D99231CF49195CA
S11307D0819591096AE070E00E942303650122C0BB
S11307E07601F2E0EF0EF11C68E070E0F601808122
S11307F091810E942303670115C00E94DE0212C08A
S1130800893029F480E20E94DE0287010BC08A301D
S113081031F461E080E00E943D03870103C00E943F
S1130820DE0287017801FFEFEF1AFF0AF8018181E8
S1130830811144CFDF91CF911F910F91FF90EF90E1
S1130840DF90CF90BF90AF907F906F905F904F906C
S113085008951F920F920FB60F9211242F933F9376
S11308604F935F936F937F938F939F93AF93BF93B4
S1130870EF93FF938091230190912401019690932B
S113088024018093230185E291E00E942501AB01BC
S1130890BC0140933702509338026093390270933D
S11308A03A028BE391E00E94640C81E090E09DBDEC
S11308B08CBDFF91EF91BF91AF919F918F917F91EB
S11308C06F915F914F913F912F910F900FBE0F90B9
S11308D01F9018951F920F920FB60F9211242F9309
S11308E03F938F939F93EF93FF938091610086953D
S11308F086958370E82FF0E09FB1E55CFD4F90830F
S1130900982F9F5F9370990F990F80916100837F57
S1130910892B809361002091610026952695237090
S113092080916100837030E090E0281739075CF40F
S1130930E0916100E695E695E370F0E0E55CFD4F3B
S113094080818FB906C0809161008F7C8061809323
S11309506100FF91EF919F918F913F912F910F90A3
S11309600FBE0F901F901895BE98BD9ABF9AB89A63
S1130970BA9ABB9AB99ABC98C49AC09AC29AC39AB2
S1130980C19A8DB1866D8DB908958898899A8AB176
S113099088618AB980B5866880BD10BC89E189B94F
S11309A00895AF92BF92CF92DF92EF92FF920F938E
S11309B01F93CF93DF93CBE3D2E00F2EF3E2AF2E5E
S11309C0F2E0BF2EF02D0F2EFFE1CF2EF2E0DF2E4E
S11309D0F02D0F2EFBE1EF2EF2E0FF2EF02D07E1BC
S11309E012E0809161008073803109F073C08091BE
S11309F06100807CA9F4C19AC09890916100907CB8
S1130A00905C809161008F73892B80936100F80161
S1130A1060817181828193810E94880E688348C0BD
S1130A2080916100807C8034A9F4C09AC29890912E
S1130A306100907C905C809161008F73892B80931E
S1130A406100F70160817181828193810E94880E27
S1130A5068832EC080916100807C8038A9F4C29A9A
S1130A60C39890916100907C905C809161008F7339
S1130A70892B80936100F601608171818281938169
S1130A800E94880E688314C080916100807C803C41
S1130A9079F4C39AC198809161008F738093610047
S1130AA0F50160817181828193810E94880E68833F
S1130AB0809161008C7F81608093610088818FB90F
S1130AC0809161008F7C8093610080916100837FBD
S1130AD080936100809161008295869586958370EC
S1130AE009F07FCFDF91CF911F910F91FF90EF908D
S1130AF0DF90CF90BF90AF9008958C9A949A8E9A7D
S1130B00969A8D9A959A08958EB582608EBD8EB50B
S1130B1081608EBD89B7806189BF089540E160E638
S1130B2085E291E00E94760061E085E291E00E9416
S1130B305D0140E050E062ED72E48BE391E00E94DD
S1130B40D50C0E94E7020E94B4040E94C5040E94CE
S1130B507D050E9484050E94C30282EF90E09F936A
S1130B608F930E944403789480E090E0AEEFB2E467
S1130B708093170290931802A0931902B0931A025B
S1130B8080931B0290931C02A0931D02B0931E023B
S1130B9080931F0290932002A0932102B09322021B
S1130BA08093230290932402A0932502B0932602FB
S1130BB062E38BE391E00E94E70A89E09DE39BBD39
S1130BC08ABD0F900F900F2EFFE0CF2EF2E0DF2EA4
S1130BD0F02D0F2EFBE0EF2EF2E0FF2EF02D07E0BC
S1130BE012E0C4E0D1E05F9BFECF8CB18093600043
S1130BF010922401109223018CB18A3CC9F4969876
S1130C002FEF89E698E1215080409040E1F700C041
S1130C100000969A0E94C3028CB11F928F93DF93B7
S1130C20CF930E9444030F900F900F900F90DBCF4F
S1130C308CB18B3CC9F494982FEF86E191E121505B
S1130C4080409040E1F700C00000949A0E94C302E3
S1130C508CB11F928F93DF93CF930E9444030F9024
S1130C600F900F900F90BFCF8CB18D3CC9F4959825
S1130C702FEF86E191E1215080409040E1F700C0E0
S1130C800000959A0E94C3028CB11F928F93DF9348
S1130C90CF930E9444030F900F900F900F90A3CF17
S1130CA08CB18E3CA9F42DEC3CEC4CEC5DE3F801EA
S1130CB060817181828193810E94510DF80160836A
S1130CC07183828393838BE391E00E942C0D8BCFFD
S1130CD08CB18F3CA9F42DEC3CEC4CEC5DE3F801B9
S1130CE060817181828193810E94500DF80160833B
S1130CF07183828393838BE391E00E942C0D73CFE5
S1130D008CB1803DA9F42DEC3CEC4CEC5DE3F70197
S1130D1060817181828193810E94510DF70160830A
S1130D207183828393838BE391E00E942C0D5BCFCC
S1130D308CB1813DA9F42DEC3CEC4CEC5DE3F70166
S1130D4060817181828193810E94500DF7016083DB
S1130D507183828393838BE391E00E942C0D43CFB4
S1130D608CB1823DA9F42DEC3CEC4CEC5DE3F60136
S1130D7060817181828193810E94510DF6016083AB
S1130D807183828393838BE391E00E942C0D2BCF9C
S1130D908CB1833DA9F42DEC3CEC4CEC5DE3F60105
S1130DA060817181828193810E94500DF60160837C
S1130DB07183828393838BE391E00E942C0D13CF84
S1130DC06CB18BE391E00E94E70A0E94D1040BCF3F
S1130DD060E08BE391E00E945D090895FC0188EED8
S1130DE093E091AB80AB81E090E093AB82AB14864F
S1130DF0158616861786108A118A128A138A148A0F
S1130E00158A168A178A108E118E128E138E148EDE
S1130E10158E168E178E10A211A212A213A210A65E
S1130E2011A612A613A614A615A616A617A681E047
S1130E3084AF86E990E097AF86AF0895641775078D
S1130E402CF4FC0175AB64AB57AB46AB0895FC01C5
S1130E5065AF4217530724F451AF40AF33AF22AF0D
S1130E600895CF92DF92EF92FF920F931F93CF9347
S1130E70DF93EC018B0161157105C1F16AA97BA9AE
S1130E80882777FD8095982F0E94B60E6B017C0110
S1130E90B80180E090E00E94B40E9B01AC01C70150
S1130EA0B6010E941B0EC62ED72EE82EF92E762FE1
S1130EB0272F3D2D4E2D5F2D6C817D818E819F814D
S1130EC00E94960F6C837D838E839F832C2D3D2DF2
S1130ED04E2D5F2D688579858A859B850E941B0E22
S1130EE0688779878A879B871BAB0AABDF91CF9191
S1130EF01F910F91FF90EF90DF90CF9008951F9373
S1130F00CF93DF93EC01122F4CA35DA36EA37FA3B9
S1130F108CAD821739F1288139814A815B8160E087
S1130F2070E0CB010E94500D688379838A839B8390
S1130F302C813D814E815F8160E070E0CB010E9495
S1130F40500D6C837D838E839F83288539854A85E4
S1130F505B8560E070E0CB010E94500D6887798763
S1130F608A879B871CAFDF91CF911F9108952F92A1
S1130F703F924F925F926F927F928F929F92AF9225
S1130F80BF92CF92DF92EF92FF920F931F93CF9372
S1130F90DF93EC014A015B012801390120E030E0D4
S1130FA0A901C501B4010E94170E88230CF47EC068
S1130FB020E030E0A901C301B2010E94170E88238A
S1130FC00CF474C020E030E0A901C701B6010E940E
S1130FD0170E88230CF46AC06AA97BA9882777FDB9
S1130FE08095982F0E94B60E9B01AC0160E070E0E2
S1130FF080E89FE30E941B0E262E372E082F192F00
S113100088829982AA82BB82762F272F332D402F84
S1131010512FC301B2010E94960F462E572E682EFF
S1131020792E862F952DA62DB72D8C839D83AE8387
S1131030BF83222D332D402F512FC701B6010E94AB
S11310401B0EE62EF72E082F192F982F4E2D5F2DED
S1131050692F712F488759876A877B878CAD8111E7
S113106025C0A501940160E070E0CB010E94500D01
S1131070688379838A839B83242D352D462D572DB0
S113108060E070E0CB010E94500D6C837D838E8301
S11310909F832E2D3F2D402F512F60E070E0CB0118
S11310A00E94500D688779878A879B87DF91CF914B
S11310B01F910F91FF90EF90DF90CF90BF90AF9072
S11310C09F908F907F906F905F904F903F902F9064
S11310D00895FC0140A751A762A773A70895FC01D6
S11310E050A141A132A123A1652F742F832F922FE8
S11310F00895CF92DF92EF92FF920F931F93CF93B5
S1131100DF93EB018A01B901882777FD8095982F39
S11311100E94B60E6B017C019B01AC016881798150
S11311208A819B810E948B0F181624F4C882D9826D
S1131130EA82FB82B801882777FD8095982F0E9468
S1131140B60E6B017C019B01AC01688179818A81B7
S11311509B810E94170E882324F4C882D982EA82D4
S1131160FB82DF91CF911F910F91FF90EF90DF9061
S1131170CF900895CF92DF92EF92FF92CF93DF93B7
S1131180EC0128A539A54AA55BA56CA17DA18EA17A
S11311909FA10E94500DC62ED72EE82EF92E982F0F
S11311A04C2D5D2D692F7F2D488F598F6A8F7B8F32
S11311B0288139814A815B816C2D7D2D8E2D9F2D57
S11311C00E94960F6C877D878E879F872C813D8137
S11311D04E815F816C2D7D2D8E2D9F2D0E94960F4B
S11311E09B01AC01688979898A899B890E94510D88
S11311F0688B798B8A8B9B8B8DAD813051F42AADB2
S11312003BAD48AD59ADBE01605F7F4FCE010E943A
S11312107908C884D984EA84FB84F7FAF094F7F84F
S1131220F0942CA53DA54EA55FA568A579A58AA532
S11312309BA50E94500D9B01AC01C701B6010E9401
S1131240960FC62ED72EE82EF92E982F4C2D5D2DF5
S1131250692F7F2D4C8B5D8B6E8B7F8B2889398911
S11312604A895B896C857D858E859F850E94510D99
S11312709B01AC016C2D7D2D8E2D9F2D0E94510D57
S113128068A379A38AA39BA32EA93FA94CA95DA90E
S1131290BE01605E7F4FCE010E94790888A599A5A2
S11312A0AAA5BBA58CA79DA7AEA7BFA7DF91CF9189
S11312B0FF90EF90DF90CF900895CF93DF93CDB759
S11312C0DEB7C059D1090FB6F894DEBF0FBECDBF4B
S11312D0262F30E3E2ECF0E0DE01AF59BF4F01907E
S11312E00D923A95E1F730E3E2E9F0E0DE01D196C0
S11312F001900D923A95E1F730E3E2E6F0E0DE0189
S1131300119601900D923A95E1F7FC01E850FF4FD8
S1131310DC01A852BF4F1D921D921D921C9213977F
S1131320DC01A452BF4F40E050E06EEF72E44D93F5
S11313305D936D937C931397DC01A052BF4F4D9343
S11313405D936D937C931397DC01AC51BF4F4D9328
S11313505D936D937C931397DC01A851BF4F4D931C
S11313605D936D937C931397DC01A453BF4F1D923F
S11313701D921D921C921397DC01A053BF4F1D9226
S11313801D921D921C921397DC01AC52BF4F1D920B
S11313901D921D921C921397DC01A45ABF4F1D92FB
S11313A01D921D921C921397DC01A05ABF4F1D92EF
S11313B01D921D921C921397DC01AC59BF4F1D92D4
S11313C01D921D921C921397DC01A451BF4F1D92D4
S11313D01D921D921C921397DC01A051BF4F1D92C8
S11313E01D921D921C921397DC01AC50BF4F1D92AD
S11313F01D921D921C9213971082118212821382E5
S113140021110AC0FE01EF59FF4FDC01A859BF4F5B
S11314109F01205D3F4F2BC0FE01F196DC01A859CE
S1131420BF4F9F01205D3F4F408151816281738195
S11314304D935D936D937C9313974481558166819D
S1131440778114964D935D936D937C9317974085A4
S113145051856285738518964D935D936D937C9346
S11314601B973C961C96E217F307F1F622C04081C5
S11314705181628173814D935D936D937C93139736
S1131480448155816681778114964D935D936D9364
S11314907C931797408551856285738518964D9383
S11314A05D936D937C931B973C961C96E217F30710
S11314B0F1F6FC01E856FF4F49815A816B817C812A
S11314C04083518362837383FC01E456FF4F4D8153
S11314D05E816F8178854083518362837383FC01CD
S11314E0E056FF4F49855A856B857C85408351833F
S11314F062837383FC01EC55FF4F4D855E856F85D8
S113150078894083518362837383FC01E855FF4FDC
S113151049895A896B897C894083518362837383A7
S1131520FC01E455FF4F4D895E896F89788D4083B6
S1131530518362837383FC01E055FF4F498D5A8DBB
S11315406B8D7C8D4083518362837383FC01EC54E7
S1131550FF4F4D8D5E8D6F8D78A1408351836283E3
S11315607383FC01E854FF4F49A15AA16BA17CA1EC
S11315704083518362837383FC01E454FF4F4DA184
S11315805EA16FA178A54083518362837383FC01BC
S1131590E054FF4F49A55AA56BA57CA54083518310
S11315A062837383FC01EC53FF4F4DA55EA56FA5C9
S11315B078A94083518362837383C057DF4F0FB68A
S11315C0F894DEBF0FBECDBFDF91CF9108952F9267
S11315D03F924F925F926F927F928F929F92AF92BF
S11315E0BF92CF92DF92EF92FF920F931F93CF930C
S11315F0DF9300D000D000D0CDB7DEB77C016436D5
S113160040F4862F90E0C2979093400280933F026B
S113161019C0862F8556833648F4862F90E0865964
S1131620910990934202809341020CC0862F8C5DF5
S1131630853140F486EE90E0861B91099093440234
S1131640809343028701045A1F4F60913F027091B7
S11316504002882777FD8095982F0E94B60EF801E6
S113166060837183828393838701005A1F4F609143
S1131670410270914202882777FD8095982F0E943D
S1131680B60EF801608371838283938387010C59BA
S11316901F4F6091430270914402882777FD809523
S11316A0982F0E94B60E20E030E040EA5FE30E94EB
S11316B0960FF801608371838283938387010452B8
S11316C01F4FF8011082118212821382F701E05237
S11316D0FF4F1082118212821382F701EC51FF4FE7
S11316E01082118212821382F701E851FF4F108297
S11316F0118212821382F701E850FF4F60817181D9
S1131700828193810E94830E882777FD8095982F8C
S11317100E94B60E4B015C012801870108591F4F36
S11317206701FCEECF0ED11C37018CE5680E711CED
S1131730F701E05AFF4FFA83E983C7018C599F4FA1
S11317409C838B835E824D8231C0ED81FE81108249
S11317501182128213821FC020E030E04FE753E46D
S1131760622D732D842D952D0E948B0F181654F025
S1131770822D932DA42DB52DF70180839183A2830F
S1131780B38309C080E090E0AFE7B3E4F70180835E
S11317909183A283B3838D819E8104969E838D83DE
S11317A0045F1F4F8C159D0509F475C0ED80FE8004
S11317B0F3012081318142815381F801608171817B
S11317C0828193810E94960FF701208131814281A9
S11317D053810E94510D262E372E482E592EE98111
S11317E0FA812081318142815381F80164817581BC
S11317F0868197810E94960F9B01AC01622D732D07
S1131800842D952D0E94510D262E372E482E592EAB
S1131810EB81FC812081318142815381F801608513
S11318207185828593850E94960F222D332D442D38
S1131830552D0E94510DF701608371838283938338
S113184026E636E64DE052E40E94510D26E636E6E1
S11318504DE852E40E941B0E20E030E04FE753E4D1
S11318600E94960F0E94830E882777FD8095982FFB
S11318700E94B60EA50194010E94510D262E372E0A
S1131880482E592E20E030E0A9010E94170E88232B
S11318900CF062CF5ACF26960FB6F894DEBF0FBE77
S11318A0CDBFDF91CF911F910F91FF90EF90DF900B
S11318B0CF90BF90AF909F908F907F906F905F90EC
S11318C04F903F902F9008958F929F92AF92BF9226
S11318D0CF92DF92EF92FF92CF93DF93EC014A0114
S11318E05B01FC01E853FF4FC080D180E280F380AC
S11318F09A01AB01C701B6010E94500D9F7720E009
S113190030E040EA50E40E948B0F181634F4B5011D
S1131910A401CE010E94690805C0B701A601CE0149
S11319200E9469088C2F9D2F0E94BA088C2F9D2F2E
S11319300E946F086B017C0120E030E040EA51E432
S11319400E948B0F18165CF4C850DF4F80E090E0C3
S1131950A0EAB1E488839983AA83BB831BC020E0F7
S113196030E040EA51ECC701B6010E94170E88230B
S11319703CF0C850DF4FC882D982EA82FB820AC099
S1131980C850DF4F80E090E0A0EAB1EC88839983EF
S1131990AA83BB83DF91CF91FF90EF90DF90CF902C
S11319A0BF90AF909F908F9008958F929F92AF9227
S11319B0BF92CF92DF92EF92FF920F931F93CF9338
S11319C0DF93EC014A015B019D2F0E94EE0661E06A
S11319D070E08C2F9D2F0E9431070F2EFAE9CF2E35
S11319E0F9E9DF2EED2CFEE3FF2EF02D0DEC1CECBF
S11319F02CEC3DE3B701A6018C2F9D2F0E94B70765
S1131A0021E0B501A4018C2F9D2F0E947F07FE01C8
S1131A10E853FF4F80829182A282B38244E150E076
S1131A206CEE7FEF8C2F9D2F0E941E0722E030E08A
S1131A304EEF5FEF61E08C2F9D2F0E942707DF910F
S1131A40CF911F910F91FF90EF90DF90CF90BF90B7
S1131A50AF909F908F900895CF92DF92EF92FF9274
S1131A600F931F93FC01EC52FF4FC080D180E280A2
S1131A70F380FC01E053FF4F008111812281338107
S1131A80FC01E453FF4F40815181628173810E94C4
S1131A90B7071F910F91FF90EF90DF90CF900895BB
S1131AA05058BB27AA270ED0FCC1EDD130F0F2D19B
S1131AB020F031F49F3F11F41EF4BDC10EF4E09503
S1131AC0E7FBB3C1E92FFED180F3BA1762077307AE
S1131AD08407950718F071F49EF516C20EF4E0958C
S1131AE00B2EBA2FA02D0B01B90190010C01CA01D4
S1131AF0A0011124FF27591B99F0593F50F4503E7F
S1131B0068F11A16F040A22F232F342F4427585F70
S1131B10F3CF469537952795A795F0405395C9F788
S1131B207EF41F16BA0B620B730B840BBAF0915040
S1131B30A1F0FF0FBB1F661F771F881FC2F70EC0DF
S1131B40BA0F621F731F841F48F4879577956795B2
S1131B50B795F7959E3F08F0B3CF9395880F08F09B
S1131B609927EE0F9795879508958DD158F080E8C1
S1131B7091E009F49EEF8ED128F040E851E059F449
S1131B805EEF09C058C1C0C1E92FE0789BD168F36A
S1131B90092E052AC1F3261737074807590738F0D5
S1131BA00E2E07F8E02569F0E025E0640AC0EF6333
S1131BB007F8009407FADB01B9019D01DC01CA01B1
S1131BC0AD01EF9347D06DD10AD05F91552331F029
S1131BD02BED3FE049E450FD49EC63CF0895DF93DA
S1131BE0DD27B92FBF7740E85FE3161617064807CD
S1131BF05B0710F4D92F93D19F938F937F936F93A7
S1131C00F8D1E4E5F0E01AD14CD12F913F914F91F6
S1131C105F9198D1DD2349F09058A2EA2AED3FE084
S1131C2049EC5FE3D0785D274DDFDF913AC1D9D02D
S1131C3008F481E008950CD034C12CD140F023D1B4
S1131C4030F021F45F3F19F0F0C051115EC1F3C0D0
S1131C5039D198F39923C9F35523B1F3951B550B47
S1131C60BB27AA2762177307840738F09F5F5F4F6B
S1131C70220F331F441FAA1FA9F333D00E2E3AF0AC
S1131C80E0E830D091505040E695001CCAF729D0C6
S1131C90FE2F27D0660F771F881FBB1F2617370715
S1131CA04807AB07B0E809F0BB0B802DBF01FF2745
S1131CB093585F4F2AF09E3F510568F0B6C025C186
S1131CC05F3FECF3983EDCF3869577956795B7957F
S1131CD0F7959F5FC9F7880F911D9695879597F99A
S1131CE00895E1E0660F771F881FBB1F6217730713
S1131CF08407BA0720F0621B730B840BBA0BEE1F28
S1131D0088F7E095089504D06894B111FEC0089551
S1131D10E1D088F09F5790F0B92F9927B751A0F0E0
S1131D20D1F0660F771F881F991F1AF0BA95C9F76B
S1131D3012C0B13081F0E8D0B1E00895E5C0672F5A
S1131D40782F8827B85F39F0B93FCCF3869577951B
S1131D506795B395D9F73EF4909580957095619504
S1131D607F4F8F4F9F4F0895E89409C097FB3EF42F
S1131D7090958095709561957F4F8F4F9F4F9923D4
S1131D80A9F0F92F96E9BB279395F6958795779552
S1131D906795B795F111F8CFFAF4BB0F11F460FF12
S1131DA01BC06F5F7F4F8F4F9F4F16C0882311F06A
S1131DB096E911C0772321F09EE8872F762F05C07E
S1131DC0662371F096E8862F70E060E02AF09A9519
S1131DD0660F771F881FDAF7880F9695879597F90E
S1131DE00895990F0008550FAA0BE0E8FEEF1616A8
S1131DF01706E807F907C0F012161306E407F507FB
S1131E0098F0621B730B840B950B39F40A2661F06E
S1131E10232B242B252B21F408950A2609F4A14011
S1131E20A6958FEF811D811D089597F99F6780E81E
S1131E3070E060E008959FEF80EC0895DF93CF9306
S1131E401F930F93FF92EF92DF927B018C016894B2
S1131E5005C0DA2EEF0176D0FE01E894A591259114
S1131E60359145915591AEF3EF012CDEFE019701BA
S1131E70A801DA9479F7DF90EF90FF900F911F910A
S1131E80CF91DF91089500240A94161617061806B8
S1131E900906089500240A9412161306140605066A
S1131EA00895092E0394000C11F4882352F0BB0FFB
S1131EB040F4BF2B11F460FF04C06F5F7F4F8F4F5E
S1131EC09F4F089557FD9058440F551F59F05F3F99
S1131ED071F04795880F97FB991F61F09F3F79F048
S1131EE087950895121613061406551FF2CF4695CA
S1131EF0F1DF08C0161617061806991FF1CF86954C
S1131F007105610508940895E894BB27662777272F
S1131F10CB0197F9089565DF08F48FEF08959B01CD
S1131F20AC0160E070E080E89FE385CE0BD0B9CFD0
S1131F30AADF28F0AFDF18F0952309F076CF7BCF26
S1131F401124E3CFBFDFA0F3959FD1F3950F50E0A9
S1131F50551F629FF001729FBB27F00DB11D639F57
S1131F60AA27F00DB11DAA1F649F6627B00DA11DFD
S1131F70661F829F2227B00DA11D621F739FB00DA3
S1131F80A11D621F839FA00D611D221F749F332713
S1131F90A00D611D231F849F600D211D822F762FAC
S1131FA06A2F11249F5750408AF0E1F088234AF0A9
S1131FB0EE0FFF1FBB1F661F771F881F91505040F5
S1131FC0A9F79E3F510570F030CF9FCF5F3FECF3F0
S1131FD0983EDCF3869577956795B795F795E795E1
S1131FE09F5FC1F7FE2B880F911D9695879597F9F2
S1131FF008959B01AC019ACFAA1BBB1B51E107C0FA
S1132000AA1FBB1FA617B70710F0A61BB70B881F84
S1132010991F5A95A9F780959095BC01CD01089513
S1132020EE0FFF1F0590F491E02D0994FB019F0131
S1132030E8944230C4F04532B4F44A3029F497FBB2
S11320401EF4909581959F4F642F77270E94FC0F73
S1132050805D8A330CF0895D8193CB010097A1F7F1
S113206016F45DE251931082C9010C943710DC011F
S1132070FC01672F71917723E1F7329704C07C91BB
S11320806D9370836291AE17BF07C8F30895F894F7
S1052090FFCF7C
S11320923210E604B5BEE604B5BEE604B53EE60477
S11320A2B53EE604B53EE604B5BEE604B5BEE604B6
S11320B2B53E0000803E0000803E0000803E0000ED
S11320C2803E000000000000803F0000803F0000CE
S11320D280BF000000000000803F000000000000FC
S11320E280BF0000803F0000803F0000000000002D
S11320F2803FF4FD34BFF4FD343F0000803FF4FD23
S113210234BFF4FD34BF0000803FF4FD343FF4FDDE
S113211234BF0000803FF4FD343FF4FD343F00003F
S1132122803F50726F6772616D20496E6974696194
S11121327465640073746167653D2564000084
S9030000FC
