S00E00004D61737465722E73726563AA
S11300000C942A000C9447000C9447000C9447006D
S11300100C9447000C9447000C9447000C94470040
S11300200C9447000C9447000C9447000C943A023B
S11300300C9447000C9447000C9447000C94470020
S11300400C9447000C9447000C9447000C94470010
S11300500C94470011241FBECFE5D8E0DEBFCDBF0E
S113006010E0A0E6B0E0ECEBFAE002C005900D92DF
S1130070AA37B107D9F720E0AAE7B0E001C01D9282
S1130080AF38B207E1F70E94CB020C945C050C94E4
S1130090000095ED9A95F1F70000882314F4DF9A97
S11300A001C0DF9886FF02C0DE9A01C0DE9885FF9A
S11300B002C0DD9A01C0DD9884FF02C0DC9A01C051
S11300C0DC98DA9ADA9883FF02C0DF9A01C0DF98DD
S11300D082FF02C0DE9A01C0DE9881FF02C0DD9A71
S11300E001C0DD9880FF02C0DC9A01C0DC98DA9A76
S11300F0DA980895DB9881E00E9449008FE39FE13C
S11301000197F1F700C000000895CF93DF93EC014D
S1130110DB9A8881882331F021960E9449008991D5
S11301208111FBCFDF91CF910895DB9A0E944900A2
S11301300895DB9880680E9449000895D39AD29A62
S1130140D79AD69AD59AD49ADB98DA988FE59AEE0C
S11301500197F1F700C00000DC9ADD9ADE98DF9881
S1130160DA9ADA988FE19EE40197F1F700C0000073
S1130170DA9ADA988FE193E00197F1F700C0000072
S1130180DA9ADA988FE193E00197F1F700C0000062
S1130190DC98DD9ADE98DF98DA9ADA9888E20E9491
S11301A049008CE00E9449000E947A0086E00E9487
S11301B049000895CF93DF9300D000D000D0CDB78D
S11301C0DEB7AB01BE016F5F7F4F0E941705CE0102
S11301D001960E94850026960FB6F894DEBF0FBEE6
S11301E0CDBFDF91CF91089590E4699F800D1124D4
S11301F00E94990008954F925F926F927F92AF92FE
S1130200BF92CF92DF92EF92FF920F931F93CF93FF
S1130210DF93CDB7DEB7FE017196A191B1916F0165
S11302208C91882309F4BDC07D01853209F09FC0FB
S113023087010F5F1F4FF7018181863609F44DC096
S113024030F4823661F0843609F08EC022C08337E0
S113025069F1883789F08F3609F086C078C0760155
S1130260F2E0EF0EF11C62E070E0F6018081918112
S11302700E94DA0067018DC07601F2E0EF0EF11CF6
S113028060E170E0F601808191810E94DA006701EB
S113029080C07601F2E0EF0EF11C6AE070E0F60136
S11302A0808191810E94DA00670173C0F60182E0C7
S11302B0C80ED11C0190F081E02D8081882309F4BF
S11302C068C07F019FEFE91AF90A0E949500F701BF
S11302D081917F018111F9CF5CC05601F4E0AF0E2A
S11302E0B11CF6014080518062807380C301B20169
S11302F00E94F5036B017C01882777FD8095982F78
S11303000E9428049B01AC01C301B2010E94900326
S113031020E030E44CE156E40E94B4040E94F5036A
S1130320662E772E6AE070E0C6010E94DA008EE243
S11303300E949500862D972D99231CF49195819503
S113034091096AE070E00E94DA00650122C076013A
S1130350F2E0EF0EF11C68E070E0F601808191811B
S11303600E94DA00670115C00E94950012C089300E
S113037029F480E20E94950087010BC08A3031F491
S113038061E080E00E94F400870103C00E949500B0
S113039087017801FFEFEF1AFF0AF80181818111CB
S11303A044CFDF91CF911F910F91FF90EF90DF9099
S11303B0CF90BF90AF907F906F905F904F900895D3
S11303C0B89AB99ABA9ABB9ABD9ABF9ABC9ABE987F
S11303D0BE98C69A8DB185658DB9089599232CF47C
S11303E091958195910931E001C030E0292F220FC8
S11303F088230CF421608068313019F42F7720644D
S113040001C02F738FB9779BFECF8FB1EFE9FFE067
S11304103197F1F700C000002FB9779BFECF4FB1A1
S113042040FF8F7746FF17C04F7B90E0EDE7F0E089
S11304309183808320813181942F969580E0822B53
S1130440932B9183808380819181919581959109EA
S113045091838083089590E0EDE7F0E091838083B9
S113046020813181942F969580E0822B932B918368
S11304708083089578941F920F920FB60F921124DF
S11304802F933F934F935F936F937F938F939F9398
S1130490AF93BF93CF93DF93EF93FF9380917A0051
S11304A090917B00019690937B0080937A008091D9
S11304B07C00982F9F5F833019F090937C003CC0A0
S11304C010927C00C09880918700909188000E94CF
S11304D0EE01C09ACDE7D0E08881998190938000A5
S11304E080937F00C1988091890090918A000E9436
S11304F0EE01C19A88819981909382008093810052
S1130500C29880918B0090918C000E94EE01C29A57
S1130510888199819093840080938300C39880910B
S11305208D0090918E000E94EE01C39A888199817A
S11305309093860080938500FF91EF91DF91CF9196
S1130540BF91AF919F918F917F916F915F914F91E7
S11305503F912F910F900FBE0F901F90189589B760
S1130560816089BF83B7856083BF08958898899A1D
S11305708AB188618AB980B5866880BD10BC89E17A
S113058089B908958EB584608EBD08958E9A969823
S11305908F9A979A089510927E0010927D000E947F
S11305A09E000E94E0010E94AF020E94C2020E94CB
S11305B0B6020E94C60278948FE790E09093880078
S11305C08093870090938A008093890090938C0095
S11305D080938B0090938E0080938D009093900075
S11305E080938F000F2EF7E88F2EF0E09F2EF02DD2
S11305F0CFE7D0E00F2EF9E8CF2EF0E0DF2EF02D7C
S11306000F2EFBE8EF2EF0E0FF2EF02D0DE810E0AA
S1130610AA24A394B12C0F2EFFE74F2EF0E05F2EF7
S1130620F02D0F2EF0E62F2EF0E03F2EF02D0F2EA2
S1130630FDE66F2EF0E07F2EF02D08B602FE0FC00F
S1130640F401D183C083F601D183C083F701D18340
S1130650C083F801D183C08388B7846088BF5F9B5F
S11306602DC0BDBCACBCF401D183C083F601D183E1
S1130670C083F701D183C0838CB190E0F8019183EA
S113068080838CB18A3C61F49798FFEF29E688E176
S1130690F15020408040E1F700C00000979A0EC05E
S11306A08CB18B3C59F4969A9FEFE6E1F1E19150BD
S11306B0E040F040E1F700C00000969880917A0095
S11306C090917B000F9708F4B8CF0E947A00E1E87C
S11306D0F0E020813181F201808191813F932F9359
S11306E09F938F933F922F920E94FB002CB1E3E8DB
S11306F0F0E0808191811F922F939F938F937F923B
S11307006F920E94FB0010927B0010927A008DB7CA
S11307109EB70C960FB6F8949EBF0FBE8DBF8DCFBB
S11307205058BB27AA270ED0E5C0D6D030F0DBD076
S113073020F031F49F3F11F41EF4CBC00EF4E09589
S1130740E7FBC1C0E92FE7D080F3BA17620773074C
S11307508407950718F071F49EF5FFC00EF4E09538
S11307600B2EBA2FA02D0B01B90190010C01CA0167
S1130770A0011124FF27591B99F0593F50F4503E12
S113078068F11A16F040A22F232F342F4427585F04
S1130790F3CF469537952795A795F0405395C9F71C
S11307A07EF41F16BA0B620B730B840BBAF09150D4
S11307B0A1F0FF0FBB1F661F771F881FC2F70EC073
S11307C0BA0F621F731F841F48F487957795679546
S11307D0B795F7959E3F08F0B3CF9395880F08F02F
S11307E09927EE0F97958795089504D06894B111D1
S11307F0B5C0089598D088F09F5790F0B92F9927E5
S1130800B751A0F0D1F0660F771F881F991F1AF017
S1130810BA95C9F712C0B13081F09FD0B1E0089504
S11308209CC0672F782F8827B85F39F0B93FCCF385
S1130830869577956795B395D9F73EF4909580950D
S1130840709561957F4F8F4F9F4F0895E89409C02D
S113085097FB3EF490958095709561957F4F8F4FEF
S11308609F4F9923A9F0F92F96E9BB279395F69505
S1130870879577956795B795F111F8CFFAF4BB0F83
S113088011F460FF1BC06F5F7F4F8F4F9F4F16C0E7
S1130890882311F096E911C0772321F09EE8872F71
S11308A0762F05C0662371F096E8862F70E060E02D
S11308B02AF09A95660F771F881FDAF7880F9695A6
S11308C0879597F9089597F99F6780E870E060E04D
S11308D008959FEF80EC089500240A9416161706D5
S11308E018060906089500240A941216130614061D
S11308F005060895092E0394000C11F4882352F080
S1130900BB0F40F4BF2B11F460FF04C06F5F7F4F37
S11309108F4F9F4F089557FD9058440F551F59F01E
S11309205F3F71F04795880F97FB991F61F09F3FD8
S113093079F087950895121613061406551FF2CF01
S11309404695F1DF08C0161617061806991FF1CF51
S113095086957105610508940895E894BB27662778
S11309607727CB0197F908950BD0C4CFB5DF28F0D2
S1130970BADF18F0952309F0A6CFABCF1124EECF40
S1130980CADFA0F3959FD1F3950F50E0551F629FE6
S1130990F001729FBB27F00DB11D639FAA27F00DD4
S11309A0B11DAA1F649F6627B00DA11D661F829FFB
S11309B02227B00DA11D621F739FB00DA11D621FE0
S11309C0839FA00D611D221F749F3327A00D611DFD
S11309D0231F849F600D211D822F762F6A2F1124DF
S11309E09F5750408AF0E1F088234AF0EE0FFF1F32
S11309F0BB1F661F771F881F91505040A9F79E3F69
S1130A00510570F060CFAACF5F3FECF3983EDCF362
S1130A10869577956795B795F795E7959F5FC1F7A5
S1130A20FE2B880F911D9695879597F90895FB01E4
S1130A309F01E8944230C4F04532B4F44A3029F4BA
S1130A4097FB1EF4909581959F4F642F77270E9402
S1130A504805805D8A330CF0895D8193CB01009752
S1130A60A1F716F45DE251931082C9010C94380584
S1130A70DC01FC01672F71917723E1F7329704C001
S1130A807C916D9370836291AE17BF07C8F308958C
S1130A90AA1BBB1B51E107C0AA1FBB1FA617B707A0
S1130AA010F0A61BB70B881F991F5A95A9F78095BC
S10F0AB09095BC01CD010895F894FFCF8F
S1130ABC53313D25642053323D256420000A5333C1
S10D0ACC3D256420553D25642000FB
S9030000FC
