S0160000496E746572727570745F746573742E7372656322
S113000012C02CC0A7C12AC029C028C027C026C03E
S113001025C035C2C3C122C021C020C01FC01EC01C
S11300201DC01CC01BC011241FBECFE5D4E0DEBF21
S1130030CDBF10E0A0E6B0E0ECE9F9E002C0059025
S11300400D92AE36B107D9F720E0AEE6B0E001C0BC
S11300501D92AA37B207E1F79FD29EC4D1CF95ED86
S11300609A95F1F70000882314F4AD9A01C0AD9875
S113007086FF02C0AC9A01C0AC9885FF02C0AB9A5F
S113008001C0AB9884FF02C0AA9A01C0AA98A99A99
S1130090A99883FF02C0AD9A01C0AD9882FF02C047
S11300A0AC9A01C0AC9881FF02C0AB9A01C0AB9876
S11300B080FF02C0AA9A01C0AA98A99AA998089593
S11300C0A89881E0CCDF8FE39FE10197F1F700C0AE
S11300D000000895CF93DF93EC01A89A88818823C8
S11300E029F02196BCDF89918111FCCFDF91CF915A
S11300F00895A89AB4DF0895A8988068B0DF089599
S1130100A09AA19AA59AA49AA39AA29AA898A998FF
S11301108FE59AEE0197F1F700C00000AA9AAB9A16
S1130120AC98AD98A99AA9988FE19EE40197F1F74C
S113013000C00000A99AA9988FE193E00197F1F714
S113014000C00000A99AA9988FE193E00197F1F704
S113015000C00000AA98AB9AAC98AD98A99AA99847
S113016088E27DDF8CE07BDFABDF86E078DF08951B
S1130170CF93DF9300D000D000D0CDB7DEB7AB0172
S1130180BE016F5F7F4FC5D3CE010196A3DF2696D4
S11301900FB6F894DEBF0FBECDBFDF91CF910895A7
S11301A090E4699F800D1124A7DF08954F925F9218
S11301B06F927F92AF92BF92CF92DF92EF92FF92B3
S11301C00F931F93CF93DF93CDB7DEB7FE017196E4
S11301D0A191B1916F018C91882309F4ACC07D0188
S11301E0853209F091C087010F5F1F4FF7018181AC
S11301F0863609F449C030F4823661F0843609F059
S113020081C020C0833751F1883781F08F3609F0DF
S113021079C06CC07601F2E0EF0EF11C62E070E090
S1130220F60180819181A4DF67017DC07601F2E04F
S1130230EF0EF11C60E170E0F6018081918198DF9E
S1130240670171C07601F2E0EF0EF11C6AE070E024
S1130250F601808191818CDF670165C0F60182E03F
S1130260C80ED11C0190F081E02D8081882309F40F
S11302705AC07F019FEFE91AF90A3BDFF701819128
S11302807F018111FACF4FC05601F4E0AF0EB11CCB
S1130290F6014080518062807380C301B20117D29D
S11302A06B017C01882777FD8095982F43D29B01B1
S11302B0AC01C301B201A6D120E030E44CE156E424
S11302C0C5D205D2662E772E6AE070E0C60150DFF3
S11302D08EE20FDF862D972D99231CF4919581953D
S11302E091096AE070E044DF65011DC07601F2E027
S11302F0EF0EF11C68E070E0F6018081918138DF37
S1130300670111C0F6DE0FC0893021F480E2F1DE0E
S1130310870109C08A3029F461E080E041DF870168
S113032002C0E7DE87017801FFEFEF1AFF0AF80148
S11303308181811155CFDF91CF911F910F91FF9052
S1130340EF90DF90CF90BF90AF907F906F905F90D1
S11303504F90089578941F920F920FB60F92112424
S11303608F939F93829B0AC0809174009091750033
S11303700196909375008093740009C08091740075
S113038090917500019790937500809374009F91EC
S11303908F910F900FBE0F901F9018951F920F9280
S11303A00FB60F9211242F933F934F938F939F93E4
S11303B08FB1882334F480937900809172008FB9CF
S11303C054C0809378008091780080FD05C08091AE
S11303D079008F77809379008091780086FF2BC015
S11303E0809178008F7B8093780080917800869547
S11303F0809378008091790090E0909377008093C7
S11304007600409178002091760030917700942F07
S113041080E0822B932B90937700809376008091D9
S1130420760090917700919581959109909377004A
S1130430809376001AC08091780086958093780026
S11304408091790090E090937700809376004091BA
S113045078002091760030917700942F80E0822BF1
S1130460932B90937700809376009F918F914F9177
S11304703F912F910F900FBE0F901F901895789475
S11304801F920F920FB60F9211242F933F938F93C5
S11304909F9380916E0090916F009C012F5F3F4F5E
S11304A030936F0020936E00039709F047C080914A
S11304B07400909175009093710080937000109275
S11304C075001092740010926F0010926E009923C0
S11304D02CF491958195910921E001C020E080934D
S11304E07300892F990F990B809372008091720089
S11304F0880F809372008091730088232CF480917C
S11305007200816080937200809173008068809390
S11305107300809172008F7780937200213031F4E0
S11305208091720080648093720005C08091720093
S11305308F7B80937200809173008FB99F918F910C
S11305403F912F910F900FBE0F901F9018958B988D
S11305508A988B98939A8A98929A85B7886085BF6F
S11305608BB780688BBF8AB780688ABF089589B7C4
S1130570816089BF83B7856083BF0895BB98BD98A8
S1130580BA98BC9ABB98C39ABD98C59ABA98C29AAD
S11305908DB1846C8DB908957894F0DFB1DDD7DF27
S11305A0E6DF10927500109274001092770010929A
S11305B0760000E610E0C6E6D0E082DD80917600A9
S11305C0909177009F938F931F930F93EFDD80910A
S11305D07000909171009F938F93DF93CF93E6DD2A
S11305E09FEF21EE84E0915020408040E1F700C06D
S11305F000008DB79EB708960FB6F8949EBF0FBE45
S11306008DBFDBCF5058BB27AA270ED0E5C0D6D06C
S113061030F0DBD020F031F49F3F11F41EF4CBC056
S11306200EF4E095E7FBC1C0E92FE7D080F3BA17D9
S1130630620773078407950718F071F49EF5FFC0ED
S11306400EF4E0950B2EBA2FA02D0B01B9019001E9
S11306500C01CA01A0011124FF27591B99F0593F2D
S113066050F4503E68F11A16F040A22F232F342F75
S11306704427585FF3CF469537952795A795F040C3
S11306805395C9F77EF41F16BA0B620B730B840BD8
S1130690BAF09150A1F0FF0FBB1F661F771F881F90
S11306A0C2F70EC0BA0F621F731F841F48F48795E8
S11306B077956795B795F7959E3F08F0B3CF9395D7
S11306C0880F08F09927EE0F97958795089504D021
S11306D06894B111B5C0089598D088F09F5790F0F0
S11306E0B92F9927B751A0F0D1F0660F771F881F53
S11306F0991F1AF0BA95C9F712C0B13081F09FD092
S1130700B1E008959CC0672F782F8827B85F39F02F
S1130710B93FCCF3869577956795B395D9F73EF4B1
S113072090958095709561957F4F8F4F9F4F089559
S1130730E89409C097FB3EF4909580957095619577
S11307407F4F8F4F9F4F9923A9F0F92F96E9BB272D
S11307509395F695879577956795B795F111F8CFA9
S1130760FAF4BB0F11F460FF1BC06F5F7F4F8F4F14
S11307709F4F16C0882311F096E911C0772321F00A
S11307809EE8872F762F05C0662371F096E8862FA2
S113079070E060E02AF09A95660F771F881FDAF7F9
S11307A0880F9695879597F9089597F99F6780E83C
S11307B070E060E008959FEF80EC089500240A94AF
S11307C01616170618060906089500240A94121628
S11307D01306140605060895092E0394000C11F45B
S11307E0882352F0BB0F40F4BF2B11F460FF04C008
S11307F06F5F7F4F8F4F9F4F089557FD9058440F61
S1130800551F59F05F3F71F04795880F97FB991F6B
S113081061F09F3F79F08795089512161306140628
S1130820551FF2CF4695F1DF08C0161617061806B5
S1130830991FF1CF86957105610508940895E89490
S1130840BB2766277727CB0197F908950BD0C4CF30
S1130850B5DF28F0BADF18F0952309F0A6CFABCFA7
S11308601124EECFCADFA0F3959FD1F3950F50E08A
S1130870551F629FF001729FBB27F00DB11D639F4E
S1130880AA27F00DB11DAA1F649F6627B00DA11DF4
S1130890661F829F2227B00DA11D621F739FB00D9A
S11308A0A11D621F839FA00D611D221F749F33270A
S11308B0A00D611D231F849F600D211D822F762FA3
S11308C06A2F11249F5750408AF0E1F088234AF0A0
S11308D0EE0FFF1FBB1F661F771F881F91505040EC
S11308E0A9F79E3F510570F060CFAACF5F3FECF3AC
S11308F0983EDCF3869577956795B795F795E795D8
S11309009F5FC1F7FE2B880F911D9695879597F9E8
S11309100895FB019F01E8944230BCF04532ACF4E9
S11309204A3029F497FB1EF4909581959F4F642FCC
S113093077271ED0805D8A330CF0895D8193CB01CB
S11309400097A9F716F45DE251931082C90100C023
S1130950DC01FC01672F71917723E1F7329704C022
S11309607C916D9370836291AE17BF07C8F30895AD
S1130970AA1BBB1B51E107C0AA1FBB1FA617B707C1
S113098010F0A61BB70B881F991F5A95A9F78095DD
S10F09909095BC01CD010895F894FFCFB0
S111099C53703D2564000A52706D3D256400C1
S9030000FC
