:1000000012C02CC096C42AC029C028C027C026C050
:1000100025C0C3C451C522C021C020C01FC01EC0FE
:100020001DC01CC01BC011241FBECFE5D4E0DEBF25
:10003000CDBF10E0A0E6B0E0E0E2F2E102C0059042
:100040000D92A037B107D9F720E0A0E7B0E001C0DA
:100050001D92A53CB207E1F7A0D5E0C8D1CF88EE4C
:1000600093E09093B2008093B10081E090E0909390
:10007000AE008093AD0010928C0010928D00109213
:100080008E0010928F001092BB001092BC00109254
:10009000BD001092BE001092940010929500109234
:1000A0009600109297001092B7001092B80010922C
:1000B000B9001092BA001092A9001092AA001092F2
:1000C000AB001092AC001092A4001092A500109208
:1000D000A6001092A7001092A0001092A10010920A
:1000E000A2001092A3001092880010928900109232
:1000F0008A0010928B0081E0809387000895861714
:10010000970744F490939B0080939A007093990012
:100110006093980008958093A8006417750744F4CD
:100120007093B0006093AF005093C0004093BF0045
:100130000895CF92DF92EF92FF92CF93DF93EC017D
:10014000009709F447C06091AD007091AE00882718
:1001500077FD8095982F08D76B017C01BE0180E068
:1001600090E000D79B01AC01C701B60162D6C62E54
:10017000D72EE82EF92E762F272F3D2D4E2D5F2DD1
:100180006091B3007091B4008091B5009091B60079
:100190009FD76093B3007093B4008093B5009093A1
:1001A000B6002C2D3D2D4E2D5F2D6091900070914D
:1001B000910080919200909193003BD660939000C3
:1001C000709391008093920090939300D093AE002F
:1001D000C093AD00DF91CF91FF90EF90DF90CF9073
:1001E0000895CF93C62FBC01882777FD8095982F5F
:1001F000BBD660939C0070939D0080939E0090936B
:100200009F0080918700C817E1F12091C1003091D3
:10021000C2004091C3005091C40060E070E0CB0187
:100220009FD56093C1007093C2008093C3009093E8
:10023000C4002091B3003091B4004091B5005091BA
:10024000B60060E070E0CB018BD56093B300709393
:10025000B4008093B5009093B60020919000309147
:100260009100409192005091930060E070E0CB01CA
:1002700077D5609390007093910080939200909353
:100280009300C0938700CF9108954F925F926F9231
:100290007F928F929F92AF92BF92CF92DF92EF9216
:1002A000FF920F931F93CF93DF934B015C012901C2
:1002B0003A016701780120E030E0A901B6D5882332
:1002C0000CF490C020E030E0A901C301B201ADD52B
:1002D00088230CF487C020E030E0A901C701B601F3
:1002E000A4D588230CF47EC06091AD007091AE005F
:1002F000882777FD8095982F37D69B01AC0160E069
:1003000070E080E89FE395D5062F172FD82FC92FCF
:100310008092C1009092C200A092C300B092C4002B
:10032000762F272F312F4D2F5C2FC301B201D0D64E
:10033000462E572E682E792E862F952DA62DB72D59
:100340008093B3009093B400A093B500B093B6002F
:10035000202F312F4D2F5C2FC701B6016AD5062FF4
:10036000172FD82FC92F982F402F512F692F7C2F4F
:10037000409390005093910060939200709393008B
:100380008091870081112EC0A501940160E070E08A
:10039000CB01E6D46093C1007093C2008093C30088
:1003A0009093C400242D352D462D572D60E070E02C
:1003B000CB01D6D46093B3007093B4008093B500A2
:1003C0009093B600202F312F4D2F5C2F60E070E00E
:1003D000CB01C6D4609390007093910080939200FB
:1003E00090939300DF91CF911F910F91FF90EF9029
:1003F000DF90CF90BF90AF909F908F907F906F9045
:100400005F904F9008956093A0007093A100809337
:10041000A2009093A3000895CF92DF92EF92FF92F3
:100420000F931F93CF93DF93EC018B01BA018827C1
:1004300077FD8095982F98D56B017C019B01AC01CD
:10044000688179818A819B813FD6181624F4C882FD
:10045000D982EA82FB82B801882777FD8095982FA0
:1004600083D56B017C019B01AC01688179818A8114
:100470009B81DBD4882324F4C882D982EA82FB8260
:10048000DF91CF911F910F91FF90EF90DF90CF9070
:1004900008950F931F93CF93DF932091A000309185
:1004A000A1004091A2005091A30060919C00709126
:1004B0009D0080919E0090919F0052D4062F172F8F
:1004C000D82FC92F982F402F512F692F7C2F409361
:1004D000B7005093B8006093B9007093BA002091B0
:1004E000C1003091C2004091C3005091C400602F00
:1004F000712F8D2F9C2FECD560938C0070938D0005
:1005000080938E0090938F002091B3003091B400BF
:100510004091B5005091B600602F712F8D2F9C2F08
:10052000D7D59B01AC016091BB007091BC0080915C
:10053000BD009091BE0015D46093BB007093BC00C9
:100540008093BD009093BE008091A800813059F443
:100550004091BF005091C0006091AF007091B00019
:100560008BEB90E059DF2091A9003091AA004091D7
:10057000AB005091AC006091B7007091B8008091D1
:10058000B9009091BA00ECD3209190003091910085
:1005900040919200509193009BD5062F172FD82F92
:1005A000C92F982F402F512F692F7C2F40939400F3
:1005B0005093950060939600709397002091BB0034
:1005C0003091BC004091BD005091BE0060918C0004
:1005D00070918D0080918E0090918F00C2D39B010D
:1005E000AC01602F712F8D2F9C2FBBD36093A40083
:1005F0007093A5008093A6009093A7004091980067
:100600005091990060919A0070919B0084EA90E06B
:1006100003DF8091B7009091B800A091B900B0912C
:10062000BA008093A9009093AA00A093AB00B09366
:10063000AC00DF91CF911F910F91089595ED9A95A0
:10064000F1F70000882314F4AD9A01C0AD9886FF3D
:1006500002C0AC9A01C0AC9885FF02C0AB9A01C041
:10066000AB9884FF02C0AA9A01C0AA98A99AA99837
:1006700083FF02C0AD9A01C0AD9882FF02C0AC9A60
:1006800001C0AC9881FF02C0AB9A01C0AB9880FF5B
:1006900002C0AA9A01C0AA98A99AA9980895A898F0
:1006A00081E0CCDF8FE39FE10197F1F700C000000C
:1006B0000895CF93DF93EC01A89A8881882329F0CD
:1006C0002196BCDF89918111FCCFDF91CF910895F4
:1006D000A89AB4DF0895A8988068B0DF0895A09A1A
:1006E000A19AA59AA49AA39AA29AA898A9988FE5E4
:1006F0009AEE0197F1F700C00000AA9AAB9AAC9865
:10070000AD98A99AA9988FE19EE40197F1F700C0EE
:100710000000A99AA9988FE193E00197F1F700C032
:100720000000A99AA9988FE193E00197F1F700C022
:100730000000AA98AB9AAC98AD98A99AA99888E2BB
:100740007DDF8CE07BDFABDF86E078DF0895CF9341
:10075000DF9300D000D000D0CDB7DEB7AB01BE0133
:100760006F5F7F4F18D5CE010196A3DF26960FB697
:10077000F894DEBF0FBECDBFDF91CF91089590E416
:10078000699F800D1124A7DF08954F925F926F92A9
:100790007F92AF92BF92CF92DF92EF92FF920F9330
:1007A0001F93CF93DF93CDB7DEB7FE017196A19172
:1007B000B1916F018C91882309F4ACC07D01853221
:1007C00009F091C087010F5F1F4FF70181818636C5
:1007D00009F449C030F4823661F0843609F081C0F2
:1007E00020C0833751F1883781F08F3609F079C006
:1007F0006CC07601F2E0EF0EF11C62E070E0F601F1
:1008000080819181A4DF67017DC07601F2E0EF0E67
:10081000F11C60E170E0F6018081918198DF670151
:1008200071C07601F2E0EF0EF11C6AE070E0F601B3
:10083000808191818CDF670165C0F60182E0C80E7E
:10084000D11C0190F081E02D8081882309F45AC0E9
:100850007F019FEFE91AF90A3BDFF70181917F01E0
:100860008111FACF4FC05601F4E0AF0EB11CF60172
:100870004080518062807380C301B20142D36B011A
:100880007C01882777FD8095982F6ED39B01AC0162
:10089000C301B20165D220E030E44CE156E418D443
:1008A00030D3662E772E6AE070E0C60150DF8EE20C
:1008B0000FDF862D972D99231CF491958195910931
:1008C0006AE070E044DF65011DC07601F2E0EF0EE2
:1008D000F11C68E070E0F6018081918138DF6701EA
:1008E00011C0F6DE0FC0893021F480E2F1DE87010D
:1008F00009C08A3029F461E080E041DF870102C04D
:10090000E7DE87017801FFEFEF1AFF0AF801818126
:10091000811155CFDF91CF911F910F91FF90EF90F3
:10092000DF90CF90BF90AF907F906F905F904F908F
:1009300008951F920F920FB60F9211248F939F93D9
:10094000AF93BF93829B07C081E090E090937900C2
:100950008093780006C08FEF9FEF9093790080938B
:1009600078008091830090918400A0918500B091DF
:1009700086000196A11DB11D809383009093840091
:10098000A0938500B0938600BF91AF919F918F9106
:100990000F900FBE0F901F9018951F920F920FB6D9
:1009A0000F921124CF92DF92EF92FF922F933F93F9
:1009B0004F935F936F937F938F939F93AF93BF9367
:1009C000CF93DF93EF93FF93609183007091840046
:1009D0008091850090918600C0917800D091790037
:1009E000C3D228E837EC45E655E472D36B017C01AD
:1009F000BE01882777FD8095982FB6D29B01AC0168
:100A0000C701B60165D320E030E040E85AE360D387
:100A1000462F572F682F792F40937B0050937C00EF
:100A200060937D0070937E0060917B0070917C00EC
:100A300080917D0090917E0020E030E040E752E41C
:100A4000F8D1462F572F682F792F40937F0050936E
:100A50008000609381007093820080917A008F5FA4
:100A600080937A0010928300109284001092850087
:100A70001092860080917600909177000196909375
:100A800077008093760081E082BFFF91EF91DF9144
:100A9000CF91BF91AF919F918F917F916F915F9116
:100AA0004F913F912F91FF90EF90DF90CF900F905B
:100AB0000FBE0F901F9018951F920F920FB60F92B6
:100AC00011242F933F934F935F936F937F938F9353
:100AD0009F93AF93BF93EF93FF938FB190E08F57A6
:100AE0009109880F991F880F991F880F991F90935C
:100AF00075008093740061E074DBFF91EF91BF910A
:100B0000AF919F918F917F916F915F914F913F91A5
:100B10002F910F900FBE0F901F9018958B988A9869
:100B20008B98939A8A98929A85B7886085BF8BB77D
:100B300080688BBF8AB780688ABF089589B7816053
:100B400089BF83B7856083BF08958FB582688FBDE5
:100B50008EB589618EBDB99A80ED97E097BD86BD4F
:100B600085E090E09BBD8ABD85ED97E09093730092
:100B7000809372008E9A8F9A969A97980895BB9850
:100B8000BD98BA98BC9ABB98C39ABD98C59ABA98B2
:100B9000C29A8DB1856C8DB9089581B3806C81BB8B
:100BA0009798969A82B38C6082BBB8DFC7DFCDDF9F
:100BB000E6DF95DD789453DA81E090E0BADA6CE60E
:100BC00077E084E998EF9BDA42E050E06EEF7FEF48
:100BD00081E0A1DAE12CF12C8701A801970166E6FA
:100BE00076E686EE9EE351DB0F2EF0EDEF2EF7E07A
:100BF000FF2EF02D0F2EF8EEAF2EF3E0BF2EF02DCE
:100C00000F2EF8EBCF2EFBE0DF2EF02D00E610E0EC
:100C1000C6E6D0E08FB18F3721F4109275001092A4
:100C2000740080917A00843008F46FC060917B007A
:100C300070917C0080917D0090917E00E4DB29DC46
:100C40008091740090917500181619063CF4885B29
:100C5000974F90937300809372000FC099233CF4D8
:100C6000885A984F909373008093720006C0892B26
:100C700021F4F0927300E0927200809172009091E2
:100C80007300893B9B402CF0D0927300C09272009D
:100C90000BC08091720090917300883E934024F4C1
:100CA000B0927300A09272008091720090917300D4
:100CB000909371008093700080917000909171000A
:100CC000803D974074F4809170009091710097017D
:100CD000281B390B30937100209370009698979AD7
:100CE0000CC08091700090917100805D974090934E
:100CF000710080937000969A9798809170009091FF
:100D000071009BBD8ABD10927A008091760090910F
:100D1000770009970CF47ECFC2DC60917B00709164
:100D20007C0080917D0090917E00EBD07F936F934B
:100D30001F930F932ADD8AB59BB59F938F93DF9303
:100D4000CF9323DD10927700109276002DB73EB737
:100D5000285F3F4F0FB6F8943EBF0FBE2DBF5ACF4E
:100D60005058BB27AA270ED075C166D130F06BD181
:100D700020F031F49F3F11F41EF45BC10EF4E095B6
:100D8000E7FB51C1E92F77D180F3BA1762077307E8
:100D90008407950718F071F49EF58FC10EF4E09565
:100DA0000B2EBA2FA02D0B01B90190010C01CA0125
:100DB000A0011124FF27591B99F0593F50F4503ED0
:100DC00068F11A16F040A22F232F342F4427585FC2
:100DD000F3CF469537952795A795F0405395C9F7DA
:100DE0007EF41F16BA0B620B730B840BBAF0915092
:100DF000A1F0FF0FBB1F661F771F881FC2F70EC031
:100E0000BA0F621F731F841F48F487957795679503
:100E1000B795F7959E3F08F0B3CF9395880F08F0EC
:100E20009927EE0F979587950895D9D008F481E01A
:100E300008950CD00FC107D140F0FED030F021F45E
:100E40005F3F19F0F0C0511139C1F3C014D198F3CC
:100E50009923C9F35523B1F3951B550BBB27AA273B
:100E600062177307840738F09F5F5F4F220F331FAD
:100E7000441FAA1FA9F333D00E2E3AF0E0E830D079
:100E800091505040E695001CCAF729D0FE2F27D07C
:100E9000660F771F881FBB1F261737074807AB074A
:100EA000B0E809F0BB0B802DBF01FF2793585F4FBF
:100EB0002AF09E3F510568F0B6C000C15F3FECF3D9
:100EC000983EDCF3869577956795B795F7959F5F84
:100ED000C9F7880F911D9695879597F90895E1E0D8
:100EE000660F771F881FBB1F621773078407BA0737
:100EF00020F0621B730B840BBA0BEE1F88F7E09592
:100F0000089504D06894B111D9C00895BCD088F078
:100F10009F5790F0B92F9927B751A0F0D1F0660FE5
:100F2000771F881F991F1AF0BA95C9F712C0B13000
:100F300081F0C3D0B1E00895C0C0672F782F882713
:100F4000B85F39F0B93FCCF3869577956795B3953F
:100F5000D9F73EF490958095709561957F4F8F4FAE
:100F60009F4F0895E89409C097FB3EF490958095B3
:100F7000709561957F4F8F4F9F4F9923A9F0F92F5F
:100F800096E9BB279395F695879577956795B795DD
:100F9000F111F8CFFAF4BB0F11F460FF1BC06F5FC3
:100FA0007F4F8F4F9F4F16C0882311F096E911C0D5
:100FB000772321F09EE8872F762F05C0662371F0F6
:100FC00096E8862F70E060E02AF09A95660F771F0A
:100FD000881FDAF7880F9695879597F90895990FE6
:100FE0000008550FAA0BE0E8FEEF16161706E807F3
:100FF000F907C0F012161306E407F50798F0621B14
:10100000730B840B950B39F40A2661F0232B242BE8
:10101000252B21F408950A2609F4A140A6958FEF07
:10102000811D811D089597F99F6780E870E060E059
:1010300008959FEF80EC089500240A941616170671
:1010400018060906089500240A94121613061406B9
:1010500005060895092E0394000C11F4882352F01C
:10106000BB0F40F4BF2B11F460FF04C06F5F7F4FD4
:101070008F4F9F4F089557FD9058440F551F59F0BB
:101080005F3F71F04795880F97FB991F61F09F3F75
:1010900079F087950895121613061406551FF2CF9E
:1010A0004695F1DF08C0161617061806991FF1CFEE
:1010B00086957105610508940895E894BB27662715
:1010C0007727CB0197F908958ADF08F48FEF089509
:1010D0000BD0C0CFB1DF28F0B6DF18F0952309F0B0
:1010E000A2CFA7CF1124EACFC6DFA0F3959FD1F3FB
:1010F000950F50E0551F629FF001729FBB27F00DC6
:10110000B11D639FAA27F00DB11DAA1F649F66271A
:10111000B00DA11D661F829F2227B00DA11D621F69
:10112000739FB00DA11D621F839FA00D611D221F23
:10113000749F3327A00D611D231F849F600D211D07
:10114000822F762F6A2F11249F5750408AF0E1F0AA
:1011500088234AF0EE0FFF1FBB1F661F771F881FF3
:1011600091505040A9F79E3F510570F05CCFA6CF3B
:101170005F3FECF3983EDCF3869577956795B795DE
:10118000F795E7959F5FC1F7FE2B880F911D969508
:10119000879597F90895FB019F01E8944230BCF0D0
:1011A0004532ACF44A3029F497FB1EF490958195B2
:1011B0009F4F642F77271ED0805D8A330CF0895DA6
:1011C0008193CB010097A9F716F45DE25193108249
:1011D000C90100C0DC01FC01672F71917723E1F7A1
:1011E000329704C07C916D9370836291AE17BF07F4
:1011F000C8F30895AA1BBB1B51E107C0AA1FBB1F60
:10120000A617B70710F0A61BB70B881F991F5A9592
:10121000A9F780959095BC01CD010895F894FFCF72
:1012200052703D2564000A4F435231413D25640010
:00000001FF
